{
  "_format": "hh-sol-artifact-1",
  "contractName": "Healthdata",
  "sourceName": "contracts/Healthdata.sol",
  "abi": [
    {
      "inputs": [
        {
          "internalType": "address payable",
          "name": "_tosend",
          "type": "address"
        }
      ],
      "name": "Pay",
      "outputs": [],
      "stateMutability": "payable",
      "type": "function"
    },
    {
      "inputs": [
        {
          "internalType": "address",
          "name": "_user",
          "type": "address"
        },
        {
          "internalType": "string",
          "name": "url",
          "type": "string"
        }
      ],
      "name": "add",
      "outputs": [],
      "stateMutability": "nonpayable",
      "type": "function"
    },
    {
      "inputs": [
        {
          "internalType": "address",
          "name": "user",
          "type": "address"
        }
      ],
      "name": "allow",
      "outputs": [],
      "stateMutability": "nonpayable",
      "type": "function"
    },
    {
      "inputs": [
        {
          "internalType": "uint256",
          "name": "_date",
          "type": "uint256"
        },
        {
          "internalType": "uint256",
          "name": "_duration",
          "type": "uint256"
        },
        {
          "internalType": "string",
          "name": "_notes",
          "type": "string"
        },
        {
          "internalType": "address",
          "name": "_doctorAddress",
          "type": "address"
        }
      ],
      "name": "bookTelemedicineAppointment",
      "outputs": [],
      "stateMutability": "nonpayable",
      "type": "function"
    },
    {
      "inputs": [],
      "name": "cancelTelemedicineAppointment",
      "outputs": [],
      "stateMutability": "nonpayable",
      "type": "function"
    },
    {
      "inputs": [
        {
          "internalType": "address",
          "name": "_patient",
          "type": "address"
        },
        {
          "internalType": "uint256",
          "name": "_policyIndex",
          "type": "uint256"
        }
      ],
      "name": "checkCoverageAmount",
      "outputs": [
        {
          "internalType": "uint256",
          "name": "",
          "type": "uint256"
        }
      ],
      "stateMutability": "view",
      "type": "function"
    },
    {
      "inputs": [
        {
          "internalType": "address",
          "name": "user",
          "type": "address"
        }
      ],
      "name": "disallow",
      "outputs": [],
      "stateMutability": "nonpayable",
      "type": "function"
    },
    {
      "inputs": [
        {
          "internalType": "address",
          "name": "_user",
          "type": "address"
        }
      ],
      "name": "display",
      "outputs": [
        {
          "internalType": "string[]",
          "name": "",
          "type": "string[]"
        }
      ],
      "stateMutability": "view",
      "type": "function"
    },
    {
      "inputs": [
        {
          "internalType": "address",
          "name": "",
          "type": "address"
        },
        {
          "internalType": "uint256",
          "name": "",
          "type": "uint256"
        }
      ],
      "name": "doctorAppointments",
      "outputs": [
        {
          "internalType": "uint256",
          "name": "date",
          "type": "uint256"
        },
        {
          "internalType": "uint256",
          "name": "duration",
          "type": "uint256"
        },
        {
          "internalType": "string",
          "name": "notes",
          "type": "string"
        },
        {
          "internalType": "bool",
          "name": "isBooked",
          "type": "bool"
        },
        {
          "internalType": "address",
          "name": "doctorAddress",
          "type": "address"
        }
      ],
      "stateMutability": "view",
      "type": "function"
    },
    {
      "inputs": [
        {
          "internalType": "string",
          "name": "_provider",
          "type": "string"
        },
        {
          "internalType": "string",
          "name": "_policyNumber",
          "type": "string"
        },
        {
          "internalType": "uint256",
          "name": "_coverageAmount",
          "type": "uint256"
        }
      ],
      "name": "enrollInsurance",
      "outputs": [],
      "stateMutability": "nonpayable",
      "type": "function"
    },
    {
      "inputs": [],
      "name": "getAllInsurances",
      "outputs": [
        {
          "components": [
            {
              "internalType": "string",
              "name": "provider",
              "type": "string"
            },
            {
              "internalType": "string",
              "name": "policyNumber",
              "type": "string"
            },
            {
              "internalType": "uint256",
              "name": "coverageAmount",
              "type": "uint256"
            },
            {
              "internalType": "bool",
              "name": "isEnrolled",
              "type": "bool"
            }
          ],
          "internalType": "struct Healthdata.Insurance[]",
          "name": "",
          "type": "tuple[]"
        }
      ],
      "stateMutability": "view",
      "type": "function"
    },
    {
      "inputs": [
        {
          "internalType": "address",
          "name": "_doctorAddress",
          "type": "address"
        }
      ],
      "name": "getDoctorAppointments",
      "outputs": [
        {
          "components": [
            {
              "internalType": "uint256",
              "name": "date",
              "type": "uint256"
            },
            {
              "internalType": "uint256",
              "name": "duration",
              "type": "uint256"
            },
            {
              "internalType": "string",
              "name": "notes",
              "type": "string"
            },
            {
              "internalType": "bool",
              "name": "isBooked",
              "type": "bool"
            },
            {
              "internalType": "address",
              "name": "doctorAddress",
              "type": "address"
            }
          ],
          "internalType": "struct Healthdata.TelemedicineAppointment[]",
          "name": "",
          "type": "tuple[]"
        }
      ],
      "stateMutability": "view",
      "type": "function"
    },
    {
      "inputs": [
        {
          "internalType": "address",
          "name": "",
          "type": "address"
        },
        {
          "internalType": "uint256",
          "name": "",
          "type": "uint256"
        }
      ],
      "name": "insurances",
      "outputs": [
        {
          "internalType": "string",
          "name": "provider",
          "type": "string"
        },
        {
          "internalType": "string",
          "name": "policyNumber",
          "type": "string"
        },
        {
          "internalType": "uint256",
          "name": "coverageAmount",
          "type": "uint256"
        },
        {
          "internalType": "bool",
          "name": "isEnrolled",
          "type": "bool"
        }
      ],
      "stateMutability": "view",
      "type": "function"
    },
    {
      "inputs": [],
      "name": "shareAccess",
      "outputs": [
        {
          "components": [
            {
              "internalType": "address",
              "name": "user",
              "type": "address"
            },
            {
              "internalType": "bool",
              "name": "access",
              "type": "bool"
            }
          ],
          "internalType": "struct Healthdata.Access[]",
          "name": "",
          "type": "tuple[]"
        }
      ],
      "stateMutability": "view",
      "type": "function"
    },
    {
      "inputs": [
        {
          "internalType": "address",
          "name": "",
          "type": "address"
        }
      ],
      "name": "telemedicineAppointments",
      "outputs": [
        {
          "internalType": "uint256",
          "name": "date",
          "type": "uint256"
        },
        {
          "internalType": "uint256",
          "name": "duration",
          "type": "uint256"
        },
        {
          "internalType": "string",
          "name": "notes",
          "type": "string"
        },
        {
          "internalType": "bool",
          "name": "isBooked",
          "type": "bool"
        },
        {
          "internalType": "address",
          "name": "doctorAddress",
          "type": "address"
        }
      ],
      "stateMutability": "view",
      "type": "function"
    },
    {
      "inputs": [
        {
          "internalType": "uint256",
          "name": "_policyIndex",
          "type": "uint256"
        },
        {
          "internalType": "string",
          "name": "_provider",
          "type": "string"
        },
        {
          "internalType": "string",
          "name": "_policyNumber",
          "type": "string"
        },
        {
          "internalType": "uint256",
          "name": "_coverageAmount",
          "type": "uint256"
        }
      ],
      "name": "updateInsurance",
      "outputs": [],
      "stateMutability": "nonpayable",
      "type": "function"
    },
    {
      "inputs": [
        {
          "internalType": "uint256",
          "name": "_date",
          "type": "uint256"
        },
        {
          "internalType": "uint256",
          "name": "_duration",
          "type": "uint256"
        },
        {
          "internalType": "string",
          "name": "_notes",
          "type": "string"
        }
      ],
      "name": "updateTelemedicineAppointment",
      "outputs": [],
      "stateMutability": "nonpayable",
      "type": "function"
    }
  ],
  "bytecode": "0x608060405234801561001057600080fd5b506135e3806100206000396000f3fe6080604052600436106100fe5760003560e01c8063bbc46e0b11610095578063cde596b211610064578063cde596b214610362578063dfc260171461037e578063e7f444aa146103a7578063eb39113f146103be578063ff9913e8146103fb576100fe565b8063bbc46e0b14610294578063bc8bef81146102d1578063c4b8edf0146102fc578063c5598c9114610325576100fe565b80637356afd6116100d15780637356afd6146101d95780638f20e226146102025780639d2e7e1514610242578063a9ed9cb81461026b576100fe565b806311165ee71461010357806336d6da551461012e57806357cd46f5146101575780636423ebb214610198575b600080fd5b34801561010f57600080fd5b50610118610424565b6040516101259190612826565b60405180910390f35b34801561013a57600080fd5b50610155600480360381019061015091906129ef565b610609565b005b34801561016357600080fd5b5061017e60048036038101906101799190612a77565b610685565b60405161018f959493929190612b2e565b60405180910390f35b3480156101a457600080fd5b506101bf60048036038101906101ba9190612b88565b61078d565b6040516101d0959493929190612b2e565b60405180910390f35b3480156101e557600080fd5b5061020060048036038101906101fb9190612bb5565b610878565b005b34801561020e57600080fd5b5061022960048036038101906102249190612a77565b610c5e565b6040516102399493929190612c24565b60405180910390f35b34801561024e57600080fd5b5061026960048036038101906102649190612c77565b610dc8565b005b34801561027757600080fd5b50610292600480360381019061028d9190612b88565b610ec5565b005b3480156102a057600080fd5b506102bb60048036038101906102b69190612a77565b6110e8565b6040516102c89190612d02565b60405180910390f35b3480156102dd57600080fd5b506102e661125d565b6040516102f39190612e0a565b60405180910390f35b34801561030857600080fd5b50610323600480360381019061031e9190612e2c565b611366565b005b34801561033157600080fd5b5061034c60048036038101906103479190612b88565b6115ca565b6040516103599190613003565b60405180910390f35b61037c60048036038101906103779190613063565b61177f565b005b34801561038a57600080fd5b506103a560048036038101906103a09190613090565b61180c565b005b3480156103b357600080fd5b506103bc611b2d565b005b3480156103ca57600080fd5b506103e560048036038101906103e09190612b88565b611e60565b6040516103f291906131d5565b60405180910390f35b34801561040757600080fd5b50610422600480360381019061041d9190612b88565b612076565b005b6060600460003373ffffffffffffffffffffffffffffffffffffffff1673ffffffffffffffffffffffffffffffffffffffff168152602001908152602001600020805480602002602001604051908101604052809291908181526020016000905b8282101561060057838290600052602060002090600402016040518060800160405290816000820180546104b890613226565b80601f01602080910402602001604051908101604052809291908181526020018280546104e490613226565b80156105315780601f1061050657610100808354040283529160200191610531565b820191906000526020600020905b81548152906001019060200180831161051457829003601f168201915b5050505050815260200160018201805461054a90613226565b80601f016020809104026020016040519081016040528092919081815260200182805461057690613226565b80156105c35780601f10610598576101008083540402835291602001916105c3565b820191906000526020600020905b8154815290600101906020018083116105a657829003601f168201915b50505050508152602001600282015481526020016003820160009054906101000a900460ff16151515158152505081526020019060010190610485565b50505050905090565b6000808373ffffffffffffffffffffffffffffffffffffffff1673ffffffffffffffffffffffffffffffffffffffff168152602001908152602001600020819080600181540180825580915050600190039060005260206000200160009091909190915090805190602001906106809291906124bd565b505050565b600660205281600052604060002081815481106106a157600080fd5b9060005260206000209060040201600091509150508060000154908060010154908060020180546106d190613226565b80601f01602080910402602001604051908101604052809291908181526020018280546106fd90613226565b801561074a5780601f1061071f5761010080835404028352916020019161074a565b820191906000526020600020905b81548152906001019060200180831161072d57829003601f168201915b5050505050908060030160009054906101000a900460ff16908060030160019054906101000a900473ffffffffffffffffffffffffffffffffffffffff16905085565b60056020528060005260406000206000915090508060000154908060010154908060020180546107bc90613226565b80601f01602080910402602001604051908101604052809291908181526020018280546107e890613226565b80156108355780601f1061080a57610100808354040283529160200191610835565b820191906000526020600020905b81548152906001019060200180831161081857829003601f168201915b5050505050908060030160009054906101000a900460ff16908060030160019054906101000a900473ffffffffffffffffffffffffffffffffffffffff16905085565b600560003373ffffffffffffffffffffffffffffffffffffffff1673ffffffffffffffffffffffffffffffffffffffff16815260200190815260200160002060030160009054906101000a900460ff16610907576040517f08c379a00000000000000000000000000000000000000000000000000000000081526004016108fe906132a4565b60405180910390fd5b82600560003373ffffffffffffffffffffffffffffffffffffffff1673ffffffffffffffffffffffffffffffffffffffff1681526020019081526020016000206000018190555081600560003373ffffffffffffffffffffffffffffffffffffffff1673ffffffffffffffffffffffffffffffffffffffff1681526020019081526020016000206001018190555080600560003373ffffffffffffffffffffffffffffffffffffffff1673ffffffffffffffffffffffffffffffffffffffff16815260200190815260200160002060020190805190602001906109eb9291906124bd565b50600060066000600560003373ffffffffffffffffffffffffffffffffffffffff1673ffffffffffffffffffffffffffffffffffffffff16815260200190815260200160002060030160019054906101000a900473ffffffffffffffffffffffffffffffffffffffff1673ffffffffffffffffffffffffffffffffffffffff1673ffffffffffffffffffffffffffffffffffffffff168152602001908152602001600020905060005b8180549050811015610c5757818181548110610ab357610ab26132c4565b5b906000526020600020906004020160030160009054906101000a900460ff168015610baf5750600560003373ffffffffffffffffffffffffffffffffffffffff1673ffffffffffffffffffffffffffffffffffffffff16815260200190815260200160002060030160019054906101000a900473ffffffffffffffffffffffffffffffffffffffff1673ffffffffffffffffffffffffffffffffffffffff16828281548110610b6557610b646132c4565b5b906000526020600020906004020160030160019054906101000a900473ffffffffffffffffffffffffffffffffffffffff1673ffffffffffffffffffffffffffffffffffffffff16145b15610c445784828281548110610bc857610bc76132c4565b5b90600052602060002090600402016000018190555083828281548110610bf157610bf06132c4565b5b90600052602060002090600402016001018190555082828281548110610c1a57610c196132c4565b5b90600052602060002090600402016002019080519060200190610c3e9291906124bd565b50610c57565b8080610c4f90613322565b915050610a94565b5050505050565b60046020528160005260406000208181548110610c7a57600080fd5b906000526020600020906004020160009150915050806000018054610c9e90613226565b80601f0160208091040260200160405190810160405280929190818152602001828054610cca90613226565b8015610d175780601f10610cec57610100808354040283529160200191610d17565b820191906000526020600020905b815481529060010190602001808311610cfa57829003601f168201915b505050505090806001018054610d2c90613226565b80601f0160208091040260200160405190810160405280929190818152602001828054610d5890613226565b8015610da55780601f10610d7a57610100808354040283529160200191610da5565b820191906000526020600020905b815481529060010190602001808311610d8857829003601f168201915b5050505050908060020154908060030160009054906101000a900460ff16905084565b60006040518060800160405280858152602001848152602001838152602001600115158152509050600460003373ffffffffffffffffffffffffffffffffffffffff1673ffffffffffffffffffffffffffffffffffffffff1681526020019081526020016000208190806001815401808255809150506001900390600052602060002090600402016000909190919091506000820151816000019080519060200190610e759291906124bd565b506020820151816001019080519060200190610e929291906124bd565b506040820151816002015560608201518160030160006101000a81548160ff021916908315150217905550505050505050565b6000600160003373ffffffffffffffffffffffffffffffffffffffff1673ffffffffffffffffffffffffffffffffffffffff16815260200190815260200160002060008373ffffffffffffffffffffffffffffffffffffffff1673ffffffffffffffffffffffffffffffffffffffff16815260200190815260200160002060006101000a81548160ff02191690831515021790555060005b600260003373ffffffffffffffffffffffffffffffffffffffff1673ffffffffffffffffffffffffffffffffffffffff168152602001908152602001600020805490508110156110e4578173ffffffffffffffffffffffffffffffffffffffff16600260003373ffffffffffffffffffffffffffffffffffffffff1673ffffffffffffffffffffffffffffffffffffffff168152602001908152602001600020828154811061100f5761100e6132c4565b5b9060005260206000200160000160009054906101000a900473ffffffffffffffffffffffffffffffffffffffff1673ffffffffffffffffffffffffffffffffffffffff1614156110d1576000600260003373ffffffffffffffffffffffffffffffffffffffff1673ffffffffffffffffffffffffffffffffffffffff16815260200190815260200160002082815481106110ac576110ab6132c4565b5b9060005260206000200160000160146101000a81548160ff0219169083151502179055505b80806110dc90613322565b915050610f5d565b5050565b600080600460008573ffffffffffffffffffffffffffffffffffffffff1673ffffffffffffffffffffffffffffffffffffffff168152602001908152602001600020805490501161116e576040517f08c379a0000000000000000000000000000000000000000000000000000000008152600401611165906133dd565b60405180910390fd5b600460008473ffffffffffffffffffffffffffffffffffffffff1673ffffffffffffffffffffffffffffffffffffffff1681526020019081526020016000208054905082106111f2576040517f08c379a00000000000000000000000000000000000000000000000000000000081526004016111e990613449565b60405180910390fd5b600460008473ffffffffffffffffffffffffffffffffffffffff1673ffffffffffffffffffffffffffffffffffffffff1681526020019081526020016000208281548110611243576112426132c4565b5b906000526020600020906004020160020154905092915050565b6060600260003373ffffffffffffffffffffffffffffffffffffffff1673ffffffffffffffffffffffffffffffffffffffff168152602001908152602001600020805480602002602001604051908101604052809291908181526020016000905b8282101561135d578382906000526020600020016040518060400160405290816000820160009054906101000a900473ffffffffffffffffffffffffffffffffffffffff1673ffffffffffffffffffffffffffffffffffffffff1673ffffffffffffffffffffffffffffffffffffffff1681526020016000820160149054906101000a900460ff161515151581525050815260200190600101906112be565b50505050905090565b6000600460003373ffffffffffffffffffffffffffffffffffffffff1673ffffffffffffffffffffffffffffffffffffffff16815260200190815260200160002080549050116113eb576040517f08c379a00000000000000000000000000000000000000000000000000000000081526004016113e2906133dd565b60405180910390fd5b600460003373ffffffffffffffffffffffffffffffffffffffff1673ffffffffffffffffffffffffffffffffffffffff16815260200190815260200160002080549050841061146f576040517f08c379a000000000000000000000000000000000000000000000000000000000815260040161146690613449565b60405180910390fd5b82600460003373ffffffffffffffffffffffffffffffffffffffff1673ffffffffffffffffffffffffffffffffffffffff16815260200190815260200160002085815481106114c1576114c06132c4565b5b906000526020600020906004020160000190805190602001906114e59291906124bd565b5081600460003373ffffffffffffffffffffffffffffffffffffffff1673ffffffffffffffffffffffffffffffffffffffff1681526020019081526020016000208581548110611538576115376132c4565b5b9060005260206000209060040201600101908051906020019061155c9291906124bd565b5080600460003373ffffffffffffffffffffffffffffffffffffffff1673ffffffffffffffffffffffffffffffffffffffff16815260200190815260200160002085815481106115af576115ae6132c4565b5b90600052602060002090600402016002018190555050505050565b6060600660008373ffffffffffffffffffffffffffffffffffffffff1673ffffffffffffffffffffffffffffffffffffffff168152602001908152602001600020805480602002602001604051908101604052809291908181526020016000905b8282101561177457838290600052602060002090600402016040518060a0016040529081600082015481526020016001820154815260200160028201805461167290613226565b80601f016020809104026020016040519081016040528092919081815260200182805461169e90613226565b80156116eb5780601f106116c0576101008083540402835291602001916116eb565b820191906000526020600020905b8154815290600101906020018083116116ce57829003601f168201915b505050505081526020016003820160009054906101000a900460ff161515151581526020016003820160019054906101000a900473ffffffffffffffffffffffffffffffffffffffff1673ffffffffffffffffffffffffffffffffffffffff1673ffffffffffffffffffffffffffffffffffffffff16815250508152602001906001019061162b565b505050509050919050565b600034116117c2576040517f08c379a00000000000000000000000000000000000000000000000000000000081526004016117b9906134b5565b60405180910390fd5b8073ffffffffffffffffffffffffffffffffffffffff166108fc349081150290604051600060405180830381858888f19350505050158015611808573d6000803e3d6000fd5b5050565b600560003373ffffffffffffffffffffffffffffffffffffffff1673ffffffffffffffffffffffffffffffffffffffff16815260200190815260200160002060030160009054906101000a900460ff161561189c576040517f08c379a000000000000000000000000000000000000000000000000000000000815260040161189390613521565b60405180910390fd5b6040518060a001604052808581526020018481526020018381526020016001151581526020018273ffffffffffffffffffffffffffffffffffffffff16815250600560003373ffffffffffffffffffffffffffffffffffffffff1673ffffffffffffffffffffffffffffffffffffffff1681526020019081526020016000206000820151816000015560208201518160010155604082015181600201908051906020019061194b9291906124bd565b5060608201518160030160006101000a81548160ff02191690831515021790555060808201518160030160016101000a81548173ffffffffffffffffffffffffffffffffffffffff021916908373ffffffffffffffffffffffffffffffffffffffff160217905550905050600660008273ffffffffffffffffffffffffffffffffffffffff1673ffffffffffffffffffffffffffffffffffffffff168152602001908152602001600020600560003373ffffffffffffffffffffffffffffffffffffffff1673ffffffffffffffffffffffffffffffffffffffff168152602001908152602001600020908060018154018082558091505060019003906000526020600020906004020160009091909190915060008201548160000155600182015481600101556002820181600201908054611a8590613226565b611a90929190612543565b506003820160009054906101000a900460ff168160030160006101000a81548160ff0219169083151502179055506003820160019054906101000a900473ffffffffffffffffffffffffffffffffffffffff168160030160016101000a81548173ffffffffffffffffffffffffffffffffffffffff021916908373ffffffffffffffffffffffffffffffffffffffff160217905550505050505050565b600560003373ffffffffffffffffffffffffffffffffffffffff1673ffffffffffffffffffffffffffffffffffffffff16815260200190815260200160002060030160009054906101000a900460ff16611bbc576040517f08c379a0000000000000000000000000000000000000000000000000000000008152600401611bb3906132a4565b60405180910390fd5b6000600560003373ffffffffffffffffffffffffffffffffffffffff1673ffffffffffffffffffffffffffffffffffffffff16815260200190815260200160002060030160019054906101000a900473ffffffffffffffffffffffffffffffffffffffff169050600560003373ffffffffffffffffffffffffffffffffffffffff1673ffffffffffffffffffffffffffffffffffffffff1681526020019081526020016000206000808201600090556001820160009055600282016000611c8391906125d0565b6003820160006101000a81549060ff02191690556003820160016101000a81549073ffffffffffffffffffffffffffffffffffffffff021916905550506000600660008373ffffffffffffffffffffffffffffffffffffffff1673ffffffffffffffffffffffffffffffffffffffff168152602001908152602001600020905060005b8180549050811015611e5b57818181548110611d2557611d246132c4565b5b906000526020600020906004020160030160009054906101000a900460ff168015611dbf57508273ffffffffffffffffffffffffffffffffffffffff16828281548110611d7557611d746132c4565b5b906000526020600020906004020160030160019054906101000a900473ffffffffffffffffffffffffffffffffffffffff1673ffffffffffffffffffffffffffffffffffffffff16145b15611e4857818181548110611dd757611dd66132c4565b5b90600052602060002090600402016000808201600090556001820160009055600282016000611e0691906125d0565b6003820160006101000a81549060ff02191690556003820160016101000a81549073ffffffffffffffffffffffffffffffffffffffff02191690555050611e5b565b8080611e5390613322565b915050611d06565b505050565b60603373ffffffffffffffffffffffffffffffffffffffff168273ffffffffffffffffffffffffffffffffffffffff161480611f225750600160008373ffffffffffffffffffffffffffffffffffffffff1673ffffffffffffffffffffffffffffffffffffffff16815260200190815260200160002060003373ffffffffffffffffffffffffffffffffffffffff1673ffffffffffffffffffffffffffffffffffffffff16815260200190815260200160002060009054906101000a900460ff165b611f61576040517f08c379a0000000000000000000000000000000000000000000000000000000008152600401611f589061358d565b60405180910390fd5b6000808373ffffffffffffffffffffffffffffffffffffffff1673ffffffffffffffffffffffffffffffffffffffff168152602001908152602001600020805480602002602001604051908101604052809291908181526020016000905b8282101561206b578382906000526020600020018054611fde90613226565b80601f016020809104026020016040519081016040528092919081815260200182805461200a90613226565b80156120575780601f1061202c57610100808354040283529160200191612057565b820191906000526020600020905b81548152906001019060200180831161203a57829003601f168201915b505050505081526020019060010190611fbf565b505050509050919050565b60018060003373ffffffffffffffffffffffffffffffffffffffff1673ffffffffffffffffffffffffffffffffffffffff16815260200190815260200160002060008373ffffffffffffffffffffffffffffffffffffffff1673ffffffffffffffffffffffffffffffffffffffff16815260200190815260200160002060006101000a81548160ff021916908315150217905550600360003373ffffffffffffffffffffffffffffffffffffffff1673ffffffffffffffffffffffffffffffffffffffff16815260200190815260200160002060008273ffffffffffffffffffffffffffffffffffffffff1673ffffffffffffffffffffffffffffffffffffffff16815260200190815260200160002060009054906101000a900460ff16156123295760005b600260003373ffffffffffffffffffffffffffffffffffffffff1673ffffffffffffffffffffffffffffffffffffffff16815260200190815260200160002080549050811015612323578173ffffffffffffffffffffffffffffffffffffffff16600260003373ffffffffffffffffffffffffffffffffffffffff1673ffffffffffffffffffffffffffffffffffffffff168152602001908152602001600020828154811061224e5761224d6132c4565b5b9060005260206000200160000160009054906101000a900473ffffffffffffffffffffffffffffffffffffffff1673ffffffffffffffffffffffffffffffffffffffff161415612310576001600260003373ffffffffffffffffffffffffffffffffffffffff1673ffffffffffffffffffffffffffffffffffffffff16815260200190815260200160002082815481106122eb576122ea6132c4565b5b9060005260206000200160000160146101000a81548160ff0219169083151502179055505b808061231b90613322565b91505061219c565b506124ba565b600260003373ffffffffffffffffffffffffffffffffffffffff1673ffffffffffffffffffffffffffffffffffffffff16815260200190815260200160002060405180604001604052808373ffffffffffffffffffffffffffffffffffffffff168152602001600115158152509080600181540180825580915050600190039060005260206000200160009091909190915060008201518160000160006101000a81548173ffffffffffffffffffffffffffffffffffffffff021916908373ffffffffffffffffffffffffffffffffffffffff16021790555060208201518160000160146101000a81548160ff02191690831515021790555050506001600360003373ffffffffffffffffffffffffffffffffffffffff1673ffffffffffffffffffffffffffffffffffffffff16815260200190815260200160002060008373ffffffffffffffffffffffffffffffffffffffff1673ffffffffffffffffffffffffffffffffffffffff16815260200190815260200160002060006101000a81548160ff0219169083151502179055505b50565b8280546124c990613226565b90600052602060002090601f0160209004810192826124eb5760008555612532565b82601f1061250457805160ff1916838001178555612532565b82800160010185558215612532579182015b82811115612531578251825591602001919060010190612516565b5b50905061253f9190612610565b5090565b82805461254f90613226565b90600052602060002090601f01602090048101928261257157600085556125bf565b82601f1061258257805485556125bf565b828001600101855582156125bf57600052602060002091601f016020900482015b828111156125be5782548255916001019190600101906125a3565b5b5090506125cc9190612610565b5090565b5080546125dc90613226565b6000825580601f106125ee575061260d565b601f01602090049060005260206000209081019061260c9190612610565b5b50565b5b80821115612629576000816000905550600101612611565b5090565b600081519050919050565b600082825260208201905092915050565b6000819050602082019050919050565b600081519050919050565b600082825260208201905092915050565b60005b83811015612693578082015181840152602081019050612678565b838111156126a2576000848401525b50505050565b6000601f19601f8301169050919050565b60006126c482612659565b6126ce8185612664565b93506126de818560208601612675565b6126e7816126a8565b840191505092915050565b6000819050919050565b612705816126f2565b82525050565b60008115159050919050565b6127208161270b565b82525050565b6000608083016000830151848203600086015261274382826126b9565b9150506020830151848203602086015261275d82826126b9565b915050604083015161277260408601826126fc565b5060608301516127856060860182612717565b508091505092915050565b600061279c8383612726565b905092915050565b6000602082019050919050565b60006127bc8261262d565b6127c68185612638565b9350836020820285016127d885612649565b8060005b8581101561281457848403895281516127f58582612790565b9450612800836127a4565b925060208a019950506001810190506127dc565b50829750879550505050505092915050565b6000602082019050818103600083015261284081846127b1565b905092915050565b6000604051905090565b600080fd5b600080fd5b600073ffffffffffffffffffffffffffffffffffffffff82169050919050565b60006128878261285c565b9050919050565b6128978161287c565b81146128a257600080fd5b50565b6000813590506128b48161288e565b92915050565b600080fd5b600080fd5b7f4e487b7100000000000000000000000000000000000000000000000000000000600052604160045260246000fd5b6128fc826126a8565b810181811067ffffffffffffffff8211171561291b5761291a6128c4565b5b80604052505050565b600061292e612848565b905061293a82826128f3565b919050565b600067ffffffffffffffff82111561295a576129596128c4565b5b612963826126a8565b9050602081019050919050565b82818337600083830152505050565b600061299261298d8461293f565b612924565b9050828152602081018484840111156129ae576129ad6128bf565b5b6129b9848285612970565b509392505050565b600082601f8301126129d6576129d56128ba565b5b81356129e684826020860161297f565b91505092915050565b60008060408385031215612a0657612a05612852565b5b6000612a14858286016128a5565b925050602083013567ffffffffffffffff811115612a3557612a34612857565b5b612a41858286016129c1565b9150509250929050565b612a54816126f2565b8114612a5f57600080fd5b50565b600081359050612a7181612a4b565b92915050565b60008060408385031215612a8e57612a8d612852565b5b6000612a9c858286016128a5565b9250506020612aad85828601612a62565b9150509250929050565b612ac0816126f2565b82525050565b600082825260208201905092915050565b6000612ae282612659565b612aec8185612ac6565b9350612afc818560208601612675565b612b05816126a8565b840191505092915050565b612b198161270b565b82525050565b612b288161287c565b82525050565b600060a082019050612b436000830188612ab7565b612b506020830187612ab7565b8181036040830152612b628186612ad7565b9050612b716060830185612b10565b612b7e6080830184612b1f565b9695505050505050565b600060208284031215612b9e57612b9d612852565b5b6000612bac848285016128a5565b91505092915050565b600080600060608486031215612bce57612bcd612852565b5b6000612bdc86828701612a62565b9350506020612bed86828701612a62565b925050604084013567ffffffffffffffff811115612c0e57612c0d612857565b5b612c1a868287016129c1565b9150509250925092565b60006080820190508181036000830152612c3e8187612ad7565b90508181036020830152612c528186612ad7565b9050612c616040830185612ab7565b612c6e6060830184612b10565b95945050505050565b600080600060608486031215612c9057612c8f612852565b5b600084013567ffffffffffffffff811115612cae57612cad612857565b5b612cba868287016129c1565b935050602084013567ffffffffffffffff811115612cdb57612cda612857565b5b612ce7868287016129c1565b9250506040612cf886828701612a62565b9150509250925092565b6000602082019050612d176000830184612ab7565b92915050565b600081519050919050565b600082825260208201905092915050565b6000819050602082019050919050565b612d528161287c565b82525050565b604082016000820151612d6e6000850182612d49565b506020820151612d816020850182612717565b50505050565b6000612d938383612d58565b60408301905092915050565b6000602082019050919050565b6000612db782612d1d565b612dc18185612d28565b9350612dcc83612d39565b8060005b83811015612dfd578151612de48882612d87565b9750612def83612d9f565b925050600181019050612dd0565b5085935050505092915050565b60006020820190508181036000830152612e248184612dac565b905092915050565b60008060008060808587031215612e4657612e45612852565b5b6000612e5487828801612a62565b945050602085013567ffffffffffffffff811115612e7557612e74612857565b5b612e81878288016129c1565b935050604085013567ffffffffffffffff811115612ea257612ea1612857565b5b612eae878288016129c1565b9250506060612ebf87828801612a62565b91505092959194509250565b600081519050919050565b600082825260208201905092915050565b6000819050602082019050919050565b600060a083016000830151612f0f60008601826126fc565b506020830151612f2260208601826126fc565b5060408301518482036040860152612f3a82826126b9565b9150506060830151612f4f6060860182612717565b506080830151612f626080860182612d49565b508091505092915050565b6000612f798383612ef7565b905092915050565b6000602082019050919050565b6000612f9982612ecb565b612fa38185612ed6565b935083602082028501612fb585612ee7565b8060005b85811015612ff15784840389528151612fd28582612f6d565b9450612fdd83612f81565b925060208a01995050600181019050612fb9565b50829750879550505050505092915050565b6000602082019050818103600083015261301d8184612f8e565b905092915050565b60006130308261285c565b9050919050565b61304081613025565b811461304b57600080fd5b50565b60008135905061305d81613037565b92915050565b60006020828403121561307957613078612852565b5b60006130878482850161304e565b91505092915050565b600080600080608085870312156130aa576130a9612852565b5b60006130b887828801612a62565b94505060206130c987828801612a62565b935050604085013567ffffffffffffffff8111156130ea576130e9612857565b5b6130f6878288016129c1565b9250506060613107878288016128a5565b91505092959194509250565b600081519050919050565b600082825260208201905092915050565b6000819050602082019050919050565b600061314b83836126b9565b905092915050565b6000602082019050919050565b600061316b82613113565b613175818561311e565b9350836020820285016131878561312f565b8060005b858110156131c357848403895281516131a4858261313f565b94506131af83613153565b925060208a0199505060018101905061318b565b50829750879550505050505092915050565b600060208201905081810360008301526131ef8184613160565b905092915050565b7f4e487b7100000000000000000000000000000000000000000000000000000000600052602260045260246000fd5b6000600282049050600182168061323e57607f821691505b60208210811415613252576132516131f7565b5b50919050565b7f4e6f206170706f696e746d656e7420626f6f6b65642e00000000000000000000600082015250565b600061328e601683612ac6565b915061329982613258565b602082019050919050565b600060208201905081810360008301526132bd81613281565b9050919050565b7f4e487b7100000000000000000000000000000000000000000000000000000000600052603260045260246000fd5b7f4e487b7100000000000000000000000000000000000000000000000000000000600052601160045260246000fd5b600061332d826126f2565b91507fffffffffffffffffffffffffffffffffffffffffffffffffffffffffffffffff8214156133605761335f6132f3565b5b600182019050919050565b7f50617469656e7420686173206e6f20696e737572616e636520706f6c6963696560008201527f732e000000000000000000000000000000000000000000000000000000000000602082015250565b60006133c7602283612ac6565b91506133d28261336b565b604082019050919050565b600060208201905081810360008301526133f6816133ba565b9050919050565b7f496e76616c696420706f6c69637920696e6465782e0000000000000000000000600082015250565b6000613433601583612ac6565b915061343e826133fd565b602082019050919050565b6000602082019050818103600083015261346281613426565b9050919050565b7f416d6f756e742050617961626c652043616e6e6f74206265205a65726f000000600082015250565b600061349f601d83612ac6565b91506134aa82613469565b602082019050919050565b600060208201905081810360008301526134ce81613492565b9050919050565b7f4170706f696e746d656e7420697320616c726561647920626f6f6b65642e0000600082015250565b600061350b601e83612ac6565b9150613516826134d5565b602082019050919050565b6000602082019050818103600083015261353a816134fe565b9050919050565b7f596f7520646f6e27742068617665206163636573730000000000000000000000600082015250565b6000613577601583612ac6565b915061358282613541565b602082019050919050565b600060208201905081810360008301526135a68161356a565b905091905056fea2646970667358221220e9c0de14bcea71b093a99e2621d7ff993b31575e4dc7295acdd016e9cdfeee0e64736f6c63430008090033",
  "linkReferences": {},
  "deployedLinkReferences": {}
}